{
  "contracts/lottery.sol": {
    "myLottery": {
      "abi": [
        {
          "inputs": [
            {
              "internalType": "uint256",
              "name": "_prizeAmount",
              "type": "uint256"
            }
          ],
          "stateMutability": "nonpayable",
          "type": "constructor"
        },
        {
          "inputs": [
            {
              "internalType": "address",
              "name": "",
              "type": "address"
            }
          ],
          "name": "balance",
          "outputs": [
            {
              "internalType": "uint256",
              "name": "",
              "type": "uint256"
            }
          ],
          "stateMutability": "view",
          "type": "function"
        },
        {
          "inputs": [],
          "name": "buyLotteryTicket",
          "outputs": [],
          "stateMutability": "payable",
          "type": "function"
        },
        {
          "inputs": [
            {
              "internalType": "bytes32",
              "name": "c__0x832d375b",
              "type": "bytes32"
            }
          ],
          "name": "c_0x832d375b",
          "outputs": [],
          "stateMutability": "pure",
          "type": "function"
        },
        {
          "inputs": [],
          "name": "f",
          "outputs": [
            {
              "internalType": "uint256",
              "name": "",
              "type": "uint256"
            }
          ],
          "stateMutability": "view",
          "type": "function"
        },
        {
          "inputs": [],
          "name": "finishLottery",
          "outputs": [],
          "stateMutability": "nonpayable",
          "type": "function"
        },
        {
          "inputs": [
            {
              "internalType": "uint256",
              "name": "",
              "type": "uint256"
            }
          ],
          "name": "lotteryPlayers",
          "outputs": [
            {
              "internalType": "address",
              "name": "",
              "type": "address"
            }
          ],
          "stateMutability": "view",
          "type": "function"
        },
        {
          "inputs": [],
          "name": "manager",
          "outputs": [
            {
              "internalType": "address",
              "name": "",
              "type": "address"
            }
          ],
          "stateMutability": "view",
          "type": "function"
        },
        {
          "inputs": [],
          "name": "prizeAmount",
          "outputs": [
            {
              "internalType": "uint256",
              "name": "",
              "type": "uint256"
            }
          ],
          "stateMutability": "view",
          "type": "function"
        },
        {
          "inputs": [],
          "name": "showPLayers",
          "outputs": [
            {
              "internalType": "address[]",
              "name": "",
              "type": "address[]"
            }
          ],
          "stateMutability": "view",
          "type": "function"
        },
        {
          "inputs": [],
          "name": "ticketPrice",
          "outputs": [
            {
              "internalType": "uint256",
              "name": "",
              "type": "uint256"
            }
          ],
          "stateMutability": "view",
          "type": "function"
        },
        {
          "inputs": [],
          "name": "winnerNum",
          "outputs": [
            {
              "internalType": "uint256",
              "name": "",
              "type": "uint256"
            }
          ],
          "stateMutability": "view",
          "type": "function"
        }
      ],
      "evm": {
        "bytecode": {
          "linkReferences": {},
          "object": "60806040523480156200001157600080fd5b5060405162001275380380620012758339818101604052810190620000379190620001a3565b6200006b7f4b81b888b31447318e138709c52aa922ce0d83c4fc4b3a10c13709ad9d5525a860001b6200018960201b60201c565b6200009f7fb8c030d4b9e634994958afe23869d6967dd8097a509a212ebe1518b05c03823660001b6200018960201b60201c565b620000d37f74755197d29e40ad0cbe8fd01ffc0194507a3460fa6b5fdc31a62f9c5593dff060001b6200018960201b60201c565b336000806101000a81548173ffffffffffffffffffffffffffffffffffffffff021916908373ffffffffffffffffffffffffffffffffffffffff160217905550620001477fb5302ead6193b3544d548350f4f7295bf32504fc2e23c96a19f49c2d5efeda5760001b6200018960201b60201c565b6200017b7f3579f3b402197c20de317aa5f3614ff0931328b6334a87bb2017c2fc3919fa4a60001b6200018960201b60201c565b8060028190555050620001f3565b50565b6000815190506200019d81620001d9565b92915050565b600060208284031215620001b657600080fd5b6000620001c6848285016200018c565b91505092915050565b6000819050919050565b620001e481620001cf565b8114620001f057600080fd5b50565b61107280620002036000396000f3fe60806040526004361061009c5760003560e01c8063785fa62711610064578063785fa627146101625780638a9722c41461018d578063a56b21ae146101b8578063a5ec23f6146101c2578063e3d670d7146101ed578063f9b93a1d1461022a5761009c565b80631209b1f6146100a157806326121ff0146100cc5780632c906ba2146100f7578063481c6a751461010e5780636a2ad7fb14610139575b600080fd5b3480156100ad57600080fd5b506100b6610267565b6040516100c39190610eb9565b60405180910390f35b3480156100d857600080fd5b506100e161026d565b6040516100ee9190610eb9565b60405180910390f35b34801561010357600080fd5b5061010c6102ce565b005b34801561011a57600080fd5b50610123610861565b6040516101309190610e5c565b60405180910390f35b34801561014557600080fd5b50610160600480360381019061015b9190610cf0565b610885565b005b34801561016e57600080fd5b50610177610888565b6040516101849190610eb9565b60405180910390f35b34801561019957600080fd5b506101a261088e565b6040516101af9190610e77565b60405180910390f35b6101c06109a0565b005b3480156101ce57600080fd5b506101d7610b84565b6040516101e49190610eb9565b60405180910390f35b3480156101f957600080fd5b50610214600480360381019061020f9190610cc7565b610b8a565b6040516102219190610eb9565b60405180910390f35b34801561023657600080fd5b50610251600480360381019061024c9190610d19565b610ba2565b60405161025e9190610e5c565b60405180910390f35b60035481565b600061029b7f3d5ed65e494b435559257e6d4593150846694e66c553125cf54fe6558c16170760001b610885565b6102c77f60d71f817cd2e18411a8a97cc3c6a60ea829c4b33a18a186b44ae2a6328badba60001b610885565b602a905090565b6102fa7ff168f74ecb76bbea577844e34944500c9bfa5ffbaa7fce46e004a98964b6bf2860001b610885565b6103267fb0b75e9aa541b6e0c370d8cee88a1cd90aa3675deeb263d90d35afa4fe62f1cc60001b610885565b6103527f316ec5f0f5b06bcf674c625634ed2324284cb18583e0f9405070357ca9b4be8a60001b610885565b61037e7f6173f7057314a3ecf434b5a8804b8fd137e0a69c83e66064a14c62646b5a547260001b610885565b60008054906101000a900473ffffffffffffffffffffffffffffffffffffffff1673ffffffffffffffffffffffffffffffffffffffff163373ffffffffffffffffffffffffffffffffffffffff16146103d657600080fd5b6104027f7516ab41cae535fdd6eec4b62971f1f95fa144b44834e0cd0d2b9e8a946de83c60001b610885565b61042e7f6de42d68a905e9e579f43b5ac7c0c54d19825d9abd5a11f7712821f4c71a52c160001b610885565b61045a7f78579e1fdf56b6d5a022e214f73b77699d87b8afc24e96e9b1dab0634383ce1460001b610885565b6104867f2475560ebe1575d60f097420a70e198c7e7dc37fa63646122f747a4e45b2294260001b610885565b6104b27f94a7bf80b7cb7f333c02e10a31ef82988e54d0167b582e9f1619c62e3a146f0360001b610885565b6104de7f9004608756cae6891737946a8fa6fd2e2fe5ec6eb26173dd76c87e89e6df2b5d60001b610885565b600060018054905014156104f157600080fd5b61051d7fe0037ae3fed3f2924b8b678a11123a7ff5ba36c4a1ae5b8b6293f9677935b5ea60001b610885565b6105497f1f3f4d88d4900aeb39ee955e0a42d4b58943627a28555a69e3c7cef9ee55b77760001b610885565b6105757f354369a44bee5dd98296c9a4dc302de8c74b896a9cbc0ced4719d6bfe750fbd560001b610885565b6000424460018054905060405160200161059193929190610e1f565b60405160208183030381529060405290506105ce7f4bedf6d7a1cb375d8bb1e8e5d0316ef8b9ef81c73b9c1bf0095688387f6f3e6460001b610885565b6105fa7fa8302ac8b5dcafa16d270a20b941e1406c0a85018048a4af1bbf6570632910ce60001b610885565b6000818051906020012090506106327f13ffe37ae9912324fb5f75b6a8d45a3ca95cf3b29bba3f558785b5dc384158be60001b610885565b61065e7f34edbcc47ec129f7790e96c8c5ff0f27ded383bbfe54f8f8704a2ca0e820f7d560001b610885565b6001805490508160001c6106729190610f6e565b6005819055506106a47f59e246729a4999454d452858d887da8d48f3bfa040cec02c536bed8d6fb2ea0d60001b610885565b6106d07f5668eb37d5d23528fdde918cb21dee0bf7ba5fb19ace6c4a07d94f754f1a0b7f60001b610885565b60016005548154811061070c577f4e487b7100000000000000000000000000000000000000000000000000000000600052603260045260246000fd5b9060005260206000200160009054906101000a900473ffffffffffffffffffffffffffffffffffffffff1673ffffffffffffffffffffffffffffffffffffffff166108fc6002549081150290604051600060405180830381858888f1935050505015801561077e573d6000803e3d6000fd5b506107ab7f041554401d5041907a18b0dc99e3d2081fca16049dcea39b6d90a6ca13a8f47a60001b610885565b6107d77f9285d34b88284437a70f53e610a6e8987af07262fa53b1966dcd46b8498d97fe60001b610885565b600067ffffffffffffffff811115610818577f4e487b7100000000000000000000000000000000000000000000000000000000600052604160045260246000fd5b6040519080825280602002602001820160405280156108465781602001602082028036833780820191505090505b506001908051906020019061085c929190610be1565b505050565b60008054906101000a900473ffffffffffffffffffffffffffffffffffffffff1681565b50565b60025481565b60606108bc7f0b8e8ffade8d3a717fe169eea67bdda55931ce31e37e794c19ce9a68cda1d78c60001b610885565b6108e87f1a44bddb3abea65aa694ef607e72bcd26a0a8ef73e6dad692f16806313c0ded360001b610885565b6109147fa09d87f25d1341152bb7e21e0555a4c6c774c8563b29255ad2a344f171a64a4960001b610885565b600180548060200260200160405190810160405280929190818152602001828054801561099657602002820191906000526020600020905b8160009054906101000a900473ffffffffffffffffffffffffffffffffffffffff1673ffffffffffffffffffffffffffffffffffffffff168152602001906001019080831161094c575b5050505050905090565b6109cc7f2b391c320b50c50d11000bb5c2987ca263c8fc7d65e4d84c7c5ea7decdc6f69660001b610885565b6109f87f6ab80700ad74eec1973f5c02c240e55569b222102218450c93bcb3ecd11ccb5a60001b610885565b610a247f2da19253e2fe6ad5cdd73a166168fa6a340087f7bcd6ef469f76a9528174a81660001b610885565b610a507fbb8f345abcd59266eaf4280083efaf9415c292f841309bee22c92dd48f9be78f60001b610885565b670de0b6b3a7640000341015610a9b576040517f08c379a0000000000000000000000000000000000000000000000000000000008152600401610a9290610e99565b60405180910390fd5b610ac77f7029eff98884e5fc012d2175f1d8c893795ff9f7b0fd50713c8b5336492318c760001b610885565b610af37f42383c45996146a51cbafeeed71350afe8c83d48f576236ca084329dcbd3fa9a60001b610885565b610b1f7f7933ad3e022a4a41e254d9ba600ab911dfd1f617ff4143ba1e8ec5484475ba3d60001b610885565b6001339080600181540180825580915050600190039060005260206000200160009091909190916101000a81548173ffffffffffffffffffffffffffffffffffffffff021916908373ffffffffffffffffffffffffffffffffffffffff160217905550565b60055481565b60046020528060005260406000206000915090505481565b60018181548110610bb257600080fd5b906000526020600020016000915054906101000a900473ffffffffffffffffffffffffffffffffffffffff1681565b828054828255906000526020600020908101928215610c5a579160200282015b82811115610c595782518260006101000a81548173ffffffffffffffffffffffffffffffffffffffff021916908373ffffffffffffffffffffffffffffffffffffffff16021790555091602001919060010190610c01565b5b509050610c679190610c6b565b5090565b5b80821115610c84576000816000905550600101610c6c565b5090565b600081359050610c9781610ff7565b92915050565b600081359050610cac8161100e565b92915050565b600081359050610cc181611025565b92915050565b600060208284031215610cd957600080fd5b6000610ce784828501610c88565b91505092915050565b600060208284031215610d0257600080fd5b6000610d1084828501610c9d565b91505092915050565b600060208284031215610d2b57600080fd5b6000610d3984828501610cb2565b91505092915050565b6000610d4e8383610d5a565b60208301905092915050565b610d6381610f1e565b82525050565b610d7281610f1e565b82525050565b6000610d8382610ee4565b610d8d8185610efc565b9350610d9883610ed4565b8060005b83811015610dc9578151610db08882610d42565b9750610dbb83610eef565b925050600181019050610d9c565b5085935050505092915050565b6000610de3600983610f0d565b9150610dee82610fce565b602082019050919050565b610e0281610f5a565b82525050565b610e19610e1482610f5a565b610f64565b82525050565b6000610e2b8286610e08565b602082019150610e3b8285610e08565b602082019150610e4b8284610e08565b602082019150819050949350505050565b6000602082019050610e716000830184610d69565b92915050565b60006020820190508181036000830152610e918184610d78565b905092915050565b60006020820190508181036000830152610eb281610dd6565b9050919050565b6000602082019050610ece6000830184610df9565b92915050565b6000819050602082019050919050565b600081519050919050565b6000602082019050919050565b600082825260208201905092915050565b600082825260208201905092915050565b6000610f2982610f3a565b9050919050565b6000819050919050565b600073ffffffffffffffffffffffffffffffffffffffff82169050919050565b6000819050919050565b6000819050919050565b6000610f7982610f5a565b9150610f8483610f5a565b925082610f9457610f93610f9f565b5b828206905092915050565b7f4e487b7100000000000000000000000000000000000000000000000000000000600052601260045260246000fd5b7f534d414c4c5f4554480000000000000000000000000000000000000000000000600082015250565b61100081610f1e565b811461100b57600080fd5b50565b61101781610f30565b811461102257600080fd5b50565b61102e81610f5a565b811461103957600080fd5b5056fea2646970667358221220faadb5e8efb1e39bee87fa9e941f114480e085ef5f346db475969ded5265c02564736f6c63430008040033",
          "opcodes": "PUSH1 0x80 PUSH1 0x40 MSTORE CALLVALUE DUP1 ISZERO PUSH3 0x11 JUMPI PUSH1 0x0 DUP1 REVERT JUMPDEST POP PUSH1 0x40 MLOAD PUSH3 0x1275 CODESIZE SUB DUP1 PUSH3 0x1275 DUP4 CODECOPY DUP2 DUP2 ADD PUSH1 0x40 MSTORE DUP2 ADD SWAP1 PUSH3 0x37 SWAP2 SWAP1 PUSH3 0x1A3 JUMP JUMPDEST PUSH3 0x6B PUSH32 0x4B81B888B31447318E138709C52AA922CE0D83C4FC4B3A10C13709AD9D5525A8 PUSH1 0x0 SHL PUSH3 0x189 PUSH1 0x20 SHL PUSH1 0x20 SHR JUMP JUMPDEST PUSH3 0x9F PUSH32 0xB8C030D4B9E634994958AFE23869D6967DD8097A509A212EBE1518B05C038236 PUSH1 0x0 SHL PUSH3 0x189 PUSH1 0x20 SHL PUSH1 0x20 SHR JUMP JUMPDEST PUSH3 0xD3 PUSH32 0x74755197D29E40AD0CBE8FD01FFC0194507A3460FA6B5FDC31A62F9C5593DFF0 PUSH1 0x0 SHL PUSH3 0x189 PUSH1 0x20 SHL PUSH1 0x20 SHR JUMP JUMPDEST CALLER PUSH1 0x0 DUP1 PUSH2 0x100 EXP DUP2 SLOAD DUP2 PUSH20 0xFFFFFFFFFFFFFFFFFFFFFFFFFFFFFFFFFFFFFFFF MUL NOT AND SWAP1 DUP4 PUSH20 0xFFFFFFFFFFFFFFFFFFFFFFFFFFFFFFFFFFFFFFFF AND MUL OR SWAP1 SSTORE POP PUSH3 0x147 PUSH32 0xB5302EAD6193B3544D548350F4F7295BF32504FC2E23C96A19F49C2D5EFEDA57 PUSH1 0x0 SHL PUSH3 0x189 PUSH1 0x20 SHL PUSH1 0x20 SHR JUMP JUMPDEST PUSH3 0x17B PUSH32 0x3579F3B402197C20DE317AA5F3614FF0931328B6334A87BB2017C2FC3919FA4A PUSH1 0x0 SHL PUSH3 0x189 PUSH1 0x20 SHL PUSH1 0x20 SHR JUMP JUMPDEST DUP1 PUSH1 0x2 DUP2 SWAP1 SSTORE POP POP PUSH3 0x1F3 JUMP JUMPDEST POP JUMP JUMPDEST PUSH1 0x0 DUP2 MLOAD SWAP1 POP PUSH3 0x19D DUP2 PUSH3 0x1D9 JUMP JUMPDEST SWAP3 SWAP2 POP POP JUMP JUMPDEST PUSH1 0x0 PUSH1 0x20 DUP3 DUP5 SUB SLT ISZERO PUSH3 0x1B6 JUMPI PUSH1 0x0 DUP1 REVERT JUMPDEST PUSH1 0x0 PUSH3 0x1C6 DUP5 DUP3 DUP6 ADD PUSH3 0x18C JUMP JUMPDEST SWAP2 POP POP SWAP3 SWAP2 POP POP JUMP JUMPDEST PUSH1 0x0 DUP2 SWAP1 POP SWAP2 SWAP1 POP JUMP JUMPDEST PUSH3 0x1E4 DUP2 PUSH3 0x1CF JUMP JUMPDEST DUP2 EQ PUSH3 0x1F0 JUMPI PUSH1 0x0 DUP1 REVERT JUMPDEST POP JUMP JUMPDEST PUSH2 0x1072 DUP1 PUSH3 0x203 PUSH1 0x0 CODECOPY PUSH1 0x0 RETURN INVALID PUSH1 0x80 PUSH1 0x40 MSTORE PUSH1 0x4 CALLDATASIZE LT PUSH2 0x9C JUMPI PUSH1 0x0 CALLDATALOAD PUSH1 0xE0 SHR DUP1 PUSH4 0x785FA627 GT PUSH2 0x64 JUMPI DUP1 PUSH4 0x785FA627 EQ PUSH2 0x162 JUMPI DUP1 PUSH4 0x8A9722C4 EQ PUSH2 0x18D JUMPI DUP1 PUSH4 0xA56B21AE EQ PUSH2 0x1B8 JUMPI DUP1 PUSH4 0xA5EC23F6 EQ PUSH2 0x1C2 JUMPI DUP1 PUSH4 0xE3D670D7 EQ PUSH2 0x1ED JUMPI DUP1 PUSH4 0xF9B93A1D EQ PUSH2 0x22A JUMPI PUSH2 0x9C JUMP JUMPDEST DUP1 PUSH4 0x1209B1F6 EQ PUSH2 0xA1 JUMPI DUP1 PUSH4 0x26121FF0 EQ PUSH2 0xCC JUMPI DUP1 PUSH4 0x2C906BA2 EQ PUSH2 0xF7 JUMPI DUP1 PUSH4 0x481C6A75 EQ PUSH2 0x10E JUMPI DUP1 PUSH4 0x6A2AD7FB EQ PUSH2 0x139 JUMPI JUMPDEST PUSH1 0x0 DUP1 REVERT JUMPDEST CALLVALUE DUP1 ISZERO PUSH2 0xAD JUMPI PUSH1 0x0 DUP1 REVERT JUMPDEST POP PUSH2 0xB6 PUSH2 0x267 JUMP JUMPDEST PUSH1 0x40 MLOAD PUSH2 0xC3 SWAP2 SWAP1 PUSH2 0xEB9 JUMP JUMPDEST PUSH1 0x40 MLOAD DUP1 SWAP2 SUB SWAP1 RETURN JUMPDEST CALLVALUE DUP1 ISZERO PUSH2 0xD8 JUMPI PUSH1 0x0 DUP1 REVERT JUMPDEST POP PUSH2 0xE1 PUSH2 0x26D JUMP JUMPDEST PUSH1 0x40 MLOAD PUSH2 0xEE SWAP2 SWAP1 PUSH2 0xEB9 JUMP JUMPDEST PUSH1 0x40 MLOAD DUP1 SWAP2 SUB SWAP1 RETURN JUMPDEST CALLVALUE DUP1 ISZERO PUSH2 0x103 JUMPI PUSH1 0x0 DUP1 REVERT JUMPDEST POP PUSH2 0x10C PUSH2 0x2CE JUMP JUMPDEST STOP JUMPDEST CALLVALUE DUP1 ISZERO PUSH2 0x11A JUMPI PUSH1 0x0 DUP1 REVERT JUMPDEST POP PUSH2 0x123 PUSH2 0x861 JUMP JUMPDEST PUSH1 0x40 MLOAD PUSH2 0x130 SWAP2 SWAP1 PUSH2 0xE5C JUMP JUMPDEST PUSH1 0x40 MLOAD DUP1 SWAP2 SUB SWAP1 RETURN JUMPDEST CALLVALUE DUP1 ISZERO PUSH2 0x145 JUMPI PUSH1 0x0 DUP1 REVERT JUMPDEST POP PUSH2 0x160 PUSH1 0x4 DUP1 CALLDATASIZE SUB DUP2 ADD SWAP1 PUSH2 0x15B SWAP2 SWAP1 PUSH2 0xCF0 JUMP JUMPDEST PUSH2 0x885 JUMP JUMPDEST STOP JUMPDEST CALLVALUE DUP1 ISZERO PUSH2 0x16E JUMPI PUSH1 0x0 DUP1 REVERT JUMPDEST POP PUSH2 0x177 PUSH2 0x888 JUMP JUMPDEST PUSH1 0x40 MLOAD PUSH2 0x184 SWAP2 SWAP1 PUSH2 0xEB9 JUMP JUMPDEST PUSH1 0x40 MLOAD DUP1 SWAP2 SUB SWAP1 RETURN JUMPDEST CALLVALUE DUP1 ISZERO PUSH2 0x199 JUMPI PUSH1 0x0 DUP1 REVERT JUMPDEST POP PUSH2 0x1A2 PUSH2 0x88E JUMP JUMPDEST PUSH1 0x40 MLOAD PUSH2 0x1AF SWAP2 SWAP1 PUSH2 0xE77 JUMP JUMPDEST PUSH1 0x40 MLOAD DUP1 SWAP2 SUB SWAP1 RETURN JUMPDEST PUSH2 0x1C0 PUSH2 0x9A0 JUMP JUMPDEST STOP JUMPDEST CALLVALUE DUP1 ISZERO PUSH2 0x1CE JUMPI PUSH1 0x0 DUP1 REVERT JUMPDEST POP PUSH2 0x1D7 PUSH2 0xB84 JUMP JUMPDEST PUSH1 0x40 MLOAD PUSH2 0x1E4 SWAP2 SWAP1 PUSH2 0xEB9 JUMP JUMPDEST PUSH1 0x40 MLOAD DUP1 SWAP2 SUB SWAP1 RETURN JUMPDEST CALLVALUE DUP1 ISZERO PUSH2 0x1F9 JUMPI PUSH1 0x0 DUP1 REVERT JUMPDEST POP PUSH2 0x214 PUSH1 0x4 DUP1 CALLDATASIZE SUB DUP2 ADD SWAP1 PUSH2 0x20F SWAP2 SWAP1 PUSH2 0xCC7 JUMP JUMPDEST PUSH2 0xB8A JUMP JUMPDEST PUSH1 0x40 MLOAD PUSH2 0x221 SWAP2 SWAP1 PUSH2 0xEB9 JUMP JUMPDEST PUSH1 0x40 MLOAD DUP1 SWAP2 SUB SWAP1 RETURN JUMPDEST CALLVALUE DUP1 ISZERO PUSH2 0x236 JUMPI PUSH1 0x0 DUP1 REVERT JUMPDEST POP PUSH2 0x251 PUSH1 0x4 DUP1 CALLDATASIZE SUB DUP2 ADD SWAP1 PUSH2 0x24C SWAP2 SWAP1 PUSH2 0xD19 JUMP JUMPDEST PUSH2 0xBA2 JUMP JUMPDEST PUSH1 0x40 MLOAD PUSH2 0x25E SWAP2 SWAP1 PUSH2 0xE5C JUMP JUMPDEST PUSH1 0x40 MLOAD DUP1 SWAP2 SUB SWAP1 RETURN JUMPDEST PUSH1 0x3 SLOAD DUP2 JUMP JUMPDEST PUSH1 0x0 PUSH2 0x29B PUSH32 0x3D5ED65E494B435559257E6D4593150846694E66C553125CF54FE6558C161707 PUSH1 0x0 SHL PUSH2 0x885 JUMP JUMPDEST PUSH2 0x2C7 PUSH32 0x60D71F817CD2E18411A8A97CC3C6A60EA829C4B33A18A186B44AE2A6328BADBA PUSH1 0x0 SHL PUSH2 0x885 JUMP JUMPDEST PUSH1 0x2A SWAP1 POP SWAP1 JUMP JUMPDEST PUSH2 0x2FA PUSH32 0xF168F74ECB76BBEA577844E34944500C9BFA5FFBAA7FCE46E004A98964B6BF28 PUSH1 0x0 SHL PUSH2 0x885 JUMP JUMPDEST PUSH2 0x326 PUSH32 0xB0B75E9AA541B6E0C370D8CEE88A1CD90AA3675DEEB263D90D35AFA4FE62F1CC PUSH1 0x0 SHL PUSH2 0x885 JUMP JUMPDEST PUSH2 0x352 PUSH32 0x316EC5F0F5B06BCF674C625634ED2324284CB18583E0F9405070357CA9B4BE8A PUSH1 0x0 SHL PUSH2 0x885 JUMP JUMPDEST PUSH2 0x37E PUSH32 0x6173F7057314A3ECF434B5A8804B8FD137E0A69C83E66064A14C62646B5A5472 PUSH1 0x0 SHL PUSH2 0x885 JUMP JUMPDEST PUSH1 0x0 DUP1 SLOAD SWAP1 PUSH2 0x100 EXP SWAP1 DIV PUSH20 0xFFFFFFFFFFFFFFFFFFFFFFFFFFFFFFFFFFFFFFFF AND PUSH20 0xFFFFFFFFFFFFFFFFFFFFFFFFFFFFFFFFFFFFFFFF AND CALLER PUSH20 0xFFFFFFFFFFFFFFFFFFFFFFFFFFFFFFFFFFFFFFFF AND EQ PUSH2 0x3D6 JUMPI PUSH1 0x0 DUP1 REVERT JUMPDEST PUSH2 0x402 PUSH32 0x7516AB41CAE535FDD6EEC4B62971F1F95FA144B44834E0CD0D2B9E8A946DE83C PUSH1 0x0 SHL PUSH2 0x885 JUMP JUMPDEST PUSH2 0x42E PUSH32 0x6DE42D68A905E9E579F43B5AC7C0C54D19825D9ABD5A11F7712821F4C71A52C1 PUSH1 0x0 SHL PUSH2 0x885 JUMP JUMPDEST PUSH2 0x45A PUSH32 0x78579E1FDF56B6D5A022E214F73B77699D87B8AFC24E96E9B1DAB0634383CE14 PUSH1 0x0 SHL PUSH2 0x885 JUMP JUMPDEST PUSH2 0x486 PUSH32 0x2475560EBE1575D60F097420A70E198C7E7DC37FA63646122F747A4E45B22942 PUSH1 0x0 SHL PUSH2 0x885 JUMP JUMPDEST PUSH2 0x4B2 PUSH32 0x94A7BF80B7CB7F333C02E10A31EF82988E54D0167B582E9F1619C62E3A146F03 PUSH1 0x0 SHL PUSH2 0x885 JUMP JUMPDEST PUSH2 0x4DE PUSH32 0x9004608756CAE6891737946A8FA6FD2E2FE5EC6EB26173DD76C87E89E6DF2B5D PUSH1 0x0 SHL PUSH2 0x885 JUMP JUMPDEST PUSH1 0x0 PUSH1 0x1 DUP1 SLOAD SWAP1 POP EQ ISZERO PUSH2 0x4F1 JUMPI PUSH1 0x0 DUP1 REVERT JUMPDEST PUSH2 0x51D PUSH32 0xE0037AE3FED3F2924B8B678A11123A7FF5BA36C4A1AE5B8B6293F9677935B5EA PUSH1 0x0 SHL PUSH2 0x885 JUMP JUMPDEST PUSH2 0x549 PUSH32 0x1F3F4D88D4900AEB39EE955E0A42D4B58943627A28555A69E3C7CEF9EE55B777 PUSH1 0x0 SHL PUSH2 0x885 JUMP JUMPDEST PUSH2 0x575 PUSH32 0x354369A44BEE5DD98296C9A4DC302DE8C74B896A9CBC0CED4719D6BFE750FBD5 PUSH1 0x0 SHL PUSH2 0x885 JUMP JUMPDEST PUSH1 0x0 TIMESTAMP DIFFICULTY PUSH1 0x1 DUP1 SLOAD SWAP1 POP PUSH1 0x40 MLOAD PUSH1 0x20 ADD PUSH2 0x591 SWAP4 SWAP3 SWAP2 SWAP1 PUSH2 0xE1F JUMP JUMPDEST PUSH1 0x40 MLOAD PUSH1 0x20 DUP2 DUP4 SUB SUB DUP2 MSTORE SWAP1 PUSH1 0x40 MSTORE SWAP1 POP PUSH2 0x5CE PUSH32 0x4BEDF6D7A1CB375D8BB1E8E5D0316EF8B9EF81C73B9C1BF0095688387F6F3E64 PUSH1 0x0 SHL PUSH2 0x885 JUMP JUMPDEST PUSH2 0x5FA PUSH32 0xA8302AC8B5DCAFA16D270A20B941E1406C0A85018048A4AF1BBF6570632910CE PUSH1 0x0 SHL PUSH2 0x885 JUMP JUMPDEST PUSH1 0x0 DUP2 DUP1 MLOAD SWAP1 PUSH1 0x20 ADD KECCAK256 SWAP1 POP PUSH2 0x632 PUSH32 0x13FFE37AE9912324FB5F75B6A8D45A3CA95CF3B29BBA3F558785B5DC384158BE PUSH1 0x0 SHL PUSH2 0x885 JUMP JUMPDEST PUSH2 0x65E PUSH32 0x34EDBCC47EC129F7790E96C8C5FF0F27DED383BBFE54F8F8704A2CA0E820F7D5 PUSH1 0x0 SHL PUSH2 0x885 JUMP JUMPDEST PUSH1 0x1 DUP1 SLOAD SWAP1 POP DUP2 PUSH1 0x0 SHR PUSH2 0x672 SWAP2 SWAP1 PUSH2 0xF6E JUMP JUMPDEST PUSH1 0x5 DUP2 SWAP1 SSTORE POP PUSH2 0x6A4 PUSH32 0x59E246729A4999454D452858D887DA8D48F3BFA040CEC02C536BED8D6FB2EA0D PUSH1 0x0 SHL PUSH2 0x885 JUMP JUMPDEST PUSH2 0x6D0 PUSH32 0x5668EB37D5D23528FDDE918CB21DEE0BF7BA5FB19ACE6C4A07D94F754F1A0B7F PUSH1 0x0 SHL PUSH2 0x885 JUMP JUMPDEST PUSH1 0x1 PUSH1 0x5 SLOAD DUP2 SLOAD DUP2 LT PUSH2 0x70C JUMPI PUSH32 0x4E487B7100000000000000000000000000000000000000000000000000000000 PUSH1 0x0 MSTORE PUSH1 0x32 PUSH1 0x4 MSTORE PUSH1 0x24 PUSH1 0x0 REVERT JUMPDEST SWAP1 PUSH1 0x0 MSTORE PUSH1 0x20 PUSH1 0x0 KECCAK256 ADD PUSH1 0x0 SWAP1 SLOAD SWAP1 PUSH2 0x100 EXP SWAP1 DIV PUSH20 0xFFFFFFFFFFFFFFFFFFFFFFFFFFFFFFFFFFFFFFFF AND PUSH20 0xFFFFFFFFFFFFFFFFFFFFFFFFFFFFFFFFFFFFFFFF AND PUSH2 0x8FC PUSH1 0x2 SLOAD SWAP1 DUP2 ISZERO MUL SWAP1 PUSH1 0x40 MLOAD PUSH1 0x0 PUSH1 0x40 MLOAD DUP1 DUP4 SUB DUP2 DUP6 DUP9 DUP9 CALL SWAP4 POP POP POP POP ISZERO DUP1 ISZERO PUSH2 0x77E JUMPI RETURNDATASIZE PUSH1 0x0 DUP1 RETURNDATACOPY RETURNDATASIZE PUSH1 0x0 REVERT JUMPDEST POP PUSH2 0x7AB PUSH32 0x41554401D5041907A18B0DC99E3D2081FCA16049DCEA39B6D90A6CA13A8F47A PUSH1 0x0 SHL PUSH2 0x885 JUMP JUMPDEST PUSH2 0x7D7 PUSH32 0x9285D34B88284437A70F53E610A6E8987AF07262FA53B1966DCD46B8498D97FE PUSH1 0x0 SHL PUSH2 0x885 JUMP JUMPDEST PUSH1 0x0 PUSH8 0xFFFFFFFFFFFFFFFF DUP2 GT ISZERO PUSH2 0x818 JUMPI PUSH32 0x4E487B7100000000000000000000000000000000000000000000000000000000 PUSH1 0x0 MSTORE PUSH1 0x41 PUSH1 0x4 MSTORE PUSH1 0x24 PUSH1 0x0 REVERT JUMPDEST PUSH1 0x40 MLOAD SWAP1 DUP1 DUP3 MSTORE DUP1 PUSH1 0x20 MUL PUSH1 0x20 ADD DUP3 ADD PUSH1 0x40 MSTORE DUP1 ISZERO PUSH2 0x846 JUMPI DUP2 PUSH1 0x20 ADD PUSH1 0x20 DUP3 MUL DUP1 CALLDATASIZE DUP4 CALLDATACOPY DUP1 DUP3 ADD SWAP2 POP POP SWAP1 POP JUMPDEST POP PUSH1 0x1 SWAP1 DUP1 MLOAD SWAP1 PUSH1 0x20 ADD SWAP1 PUSH2 0x85C SWAP3 SWAP2 SWAP1 PUSH2 0xBE1 JUMP JUMPDEST POP POP POP JUMP JUMPDEST PUSH1 0x0 DUP1 SLOAD SWAP1 PUSH2 0x100 EXP SWAP1 DIV PUSH20 0xFFFFFFFFFFFFFFFFFFFFFFFFFFFFFFFFFFFFFFFF AND DUP2 JUMP JUMPDEST POP JUMP JUMPDEST PUSH1 0x2 SLOAD DUP2 JUMP JUMPDEST PUSH1 0x60 PUSH2 0x8BC PUSH32 0xB8E8FFADE8D3A717FE169EEA67BDDA55931CE31E37E794C19CE9A68CDA1D78C PUSH1 0x0 SHL PUSH2 0x885 JUMP JUMPDEST PUSH2 0x8E8 PUSH32 0x1A44BDDB3ABEA65AA694EF607E72BCD26A0A8EF73E6DAD692F16806313C0DED3 PUSH1 0x0 SHL PUSH2 0x885 JUMP JUMPDEST PUSH2 0x914 PUSH32 0xA09D87F25D1341152BB7E21E0555A4C6C774C8563B29255AD2A344F171A64A49 PUSH1 0x0 SHL PUSH2 0x885 JUMP JUMPDEST PUSH1 0x1 DUP1 SLOAD DUP1 PUSH1 0x20 MUL PUSH1 0x20 ADD PUSH1 0x40 MLOAD SWAP1 DUP2 ADD PUSH1 0x40 MSTORE DUP1 SWAP3 SWAP2 SWAP1 DUP2 DUP2 MSTORE PUSH1 0x20 ADD DUP3 DUP1 SLOAD DUP1 ISZERO PUSH2 0x996 JUMPI PUSH1 0x20 MUL DUP3 ADD SWAP2 SWAP1 PUSH1 0x0 MSTORE PUSH1 0x20 PUSH1 0x0 KECCAK256 SWAP1 JUMPDEST DUP2 PUSH1 0x0 SWAP1 SLOAD SWAP1 PUSH2 0x100 EXP SWAP1 DIV PUSH20 0xFFFFFFFFFFFFFFFFFFFFFFFFFFFFFFFFFFFFFFFF AND PUSH20 0xFFFFFFFFFFFFFFFFFFFFFFFFFFFFFFFFFFFFFFFF AND DUP2 MSTORE PUSH1 0x20 ADD SWAP1 PUSH1 0x1 ADD SWAP1 DUP1 DUP4 GT PUSH2 0x94C JUMPI JUMPDEST POP POP POP POP POP SWAP1 POP SWAP1 JUMP JUMPDEST PUSH2 0x9CC PUSH32 0x2B391C320B50C50D11000BB5C2987CA263C8FC7D65E4D84C7C5EA7DECDC6F696 PUSH1 0x0 SHL PUSH2 0x885 JUMP JUMPDEST PUSH2 0x9F8 PUSH32 0x6AB80700AD74EEC1973F5C02C240E55569B222102218450C93BCB3ECD11CCB5A PUSH1 0x0 SHL PUSH2 0x885 JUMP JUMPDEST PUSH2 0xA24 PUSH32 0x2DA19253E2FE6AD5CDD73A166168FA6A340087F7BCD6EF469F76A9528174A816 PUSH1 0x0 SHL PUSH2 0x885 JUMP JUMPDEST PUSH2 0xA50 PUSH32 0xBB8F345ABCD59266EAF4280083EFAF9415C292F841309BEE22C92DD48F9BE78F PUSH1 0x0 SHL PUSH2 0x885 JUMP JUMPDEST PUSH8 0xDE0B6B3A7640000 CALLVALUE LT ISZERO PUSH2 0xA9B JUMPI PUSH1 0x40 MLOAD PUSH32 0x8C379A000000000000000000000000000000000000000000000000000000000 DUP2 MSTORE PUSH1 0x4 ADD PUSH2 0xA92 SWAP1 PUSH2 0xE99 JUMP JUMPDEST PUSH1 0x40 MLOAD DUP1 SWAP2 SUB SWAP1 REVERT JUMPDEST PUSH2 0xAC7 PUSH32 0x7029EFF98884E5FC012D2175F1D8C893795FF9F7B0FD50713C8B5336492318C7 PUSH1 0x0 SHL PUSH2 0x885 JUMP JUMPDEST PUSH2 0xAF3 PUSH32 0x42383C45996146A51CBAFEEED71350AFE8C83D48F576236CA084329DCBD3FA9A PUSH1 0x0 SHL PUSH2 0x885 JUMP JUMPDEST PUSH2 0xB1F PUSH32 0x7933AD3E022A4A41E254D9BA600AB911DFD1F617FF4143BA1E8EC5484475BA3D PUSH1 0x0 SHL PUSH2 0x885 JUMP JUMPDEST PUSH1 0x1 CALLER SWAP1 DUP1 PUSH1 0x1 DUP2 SLOAD ADD DUP1 DUP3 SSTORE DUP1 SWAP2 POP POP PUSH1 0x1 SWAP1 SUB SWAP1 PUSH1 0x0 MSTORE PUSH1 0x20 PUSH1 0x0 KECCAK256 ADD PUSH1 0x0 SWAP1 SWAP2 SWAP1 SWAP2 SWAP1 SWAP2 PUSH2 0x100 EXP DUP2 SLOAD DUP2 PUSH20 0xFFFFFFFFFFFFFFFFFFFFFFFFFFFFFFFFFFFFFFFF MUL NOT AND SWAP1 DUP4 PUSH20 0xFFFFFFFFFFFFFFFFFFFFFFFFFFFFFFFFFFFFFFFF AND MUL OR SWAP1 SSTORE POP JUMP JUMPDEST PUSH1 0x5 SLOAD DUP2 JUMP JUMPDEST PUSH1 0x4 PUSH1 0x20 MSTORE DUP1 PUSH1 0x0 MSTORE PUSH1 0x40 PUSH1 0x0 KECCAK256 PUSH1 0x0 SWAP2 POP SWAP1 POP SLOAD DUP2 JUMP JUMPDEST PUSH1 0x1 DUP2 DUP2 SLOAD DUP2 LT PUSH2 0xBB2 JUMPI PUSH1 0x0 DUP1 REVERT JUMPDEST SWAP1 PUSH1 0x0 MSTORE PUSH1 0x20 PUSH1 0x0 KECCAK256 ADD PUSH1 0x0 SWAP2 POP SLOAD SWAP1 PUSH2 0x100 EXP SWAP1 DIV PUSH20 0xFFFFFFFFFFFFFFFFFFFFFFFFFFFFFFFFFFFFFFFF AND DUP2 JUMP JUMPDEST DUP3 DUP1 SLOAD DUP3 DUP3 SSTORE SWAP1 PUSH1 0x0 MSTORE PUSH1 0x20 PUSH1 0x0 KECCAK256 SWAP1 DUP2 ADD SWAP3 DUP3 ISZERO PUSH2 0xC5A JUMPI SWAP2 PUSH1 0x20 MUL DUP3 ADD JUMPDEST DUP3 DUP2 GT ISZERO PUSH2 0xC59 JUMPI DUP3 MLOAD DUP3 PUSH1 0x0 PUSH2 0x100 EXP DUP2 SLOAD DUP2 PUSH20 0xFFFFFFFFFFFFFFFFFFFFFFFFFFFFFFFFFFFFFFFF MUL NOT AND SWAP1 DUP4 PUSH20 0xFFFFFFFFFFFFFFFFFFFFFFFFFFFFFFFFFFFFFFFF AND MUL OR SWAP1 SSTORE POP SWAP2 PUSH1 0x20 ADD SWAP2 SWAP1 PUSH1 0x1 ADD SWAP1 PUSH2 0xC01 JUMP JUMPDEST JUMPDEST POP SWAP1 POP PUSH2 0xC67 SWAP2 SWAP1 PUSH2 0xC6B JUMP JUMPDEST POP SWAP1 JUMP JUMPDEST JUMPDEST DUP1 DUP3 GT ISZERO PUSH2 0xC84 JUMPI PUSH1 0x0 DUP2 PUSH1 0x0 SWAP1 SSTORE POP PUSH1 0x1 ADD PUSH2 0xC6C JUMP JUMPDEST POP SWAP1 JUMP JUMPDEST PUSH1 0x0 DUP2 CALLDATALOAD SWAP1 POP PUSH2 0xC97 DUP2 PUSH2 0xFF7 JUMP JUMPDEST SWAP3 SWAP2 POP POP JUMP JUMPDEST PUSH1 0x0 DUP2 CALLDATALOAD SWAP1 POP PUSH2 0xCAC DUP2 PUSH2 0x100E JUMP JUMPDEST SWAP3 SWAP2 POP POP JUMP JUMPDEST PUSH1 0x0 DUP2 CALLDATALOAD SWAP1 POP PUSH2 0xCC1 DUP2 PUSH2 0x1025 JUMP JUMPDEST SWAP3 SWAP2 POP POP JUMP JUMPDEST PUSH1 0x0 PUSH1 0x20 DUP3 DUP5 SUB SLT ISZERO PUSH2 0xCD9 JUMPI PUSH1 0x0 DUP1 REVERT JUMPDEST PUSH1 0x0 PUSH2 0xCE7 DUP5 DUP3 DUP6 ADD PUSH2 0xC88 JUMP JUMPDEST SWAP2 POP POP SWAP3 SWAP2 POP POP JUMP JUMPDEST PUSH1 0x0 PUSH1 0x20 DUP3 DUP5 SUB SLT ISZERO PUSH2 0xD02 JUMPI PUSH1 0x0 DUP1 REVERT JUMPDEST PUSH1 0x0 PUSH2 0xD10 DUP5 DUP3 DUP6 ADD PUSH2 0xC9D JUMP JUMPDEST SWAP2 POP POP SWAP3 SWAP2 POP POP JUMP JUMPDEST PUSH1 0x0 PUSH1 0x20 DUP3 DUP5 SUB SLT ISZERO PUSH2 0xD2B JUMPI PUSH1 0x0 DUP1 REVERT JUMPDEST PUSH1 0x0 PUSH2 0xD39 DUP5 DUP3 DUP6 ADD PUSH2 0xCB2 JUMP JUMPDEST SWAP2 POP POP SWAP3 SWAP2 POP POP JUMP JUMPDEST PUSH1 0x0 PUSH2 0xD4E DUP4 DUP4 PUSH2 0xD5A JUMP JUMPDEST PUSH1 0x20 DUP4 ADD SWAP1 POP SWAP3 SWAP2 POP POP JUMP JUMPDEST PUSH2 0xD63 DUP2 PUSH2 0xF1E JUMP JUMPDEST DUP3 MSTORE POP POP JUMP JUMPDEST PUSH2 0xD72 DUP2 PUSH2 0xF1E JUMP JUMPDEST DUP3 MSTORE POP POP JUMP JUMPDEST PUSH1 0x0 PUSH2 0xD83 DUP3 PUSH2 0xEE4 JUMP JUMPDEST PUSH2 0xD8D DUP2 DUP6 PUSH2 0xEFC JUMP JUMPDEST SWAP4 POP PUSH2 0xD98 DUP4 PUSH2 0xED4 JUMP JUMPDEST DUP1 PUSH1 0x0 JUMPDEST DUP4 DUP2 LT ISZERO PUSH2 0xDC9 JUMPI DUP2 MLOAD PUSH2 0xDB0 DUP9 DUP3 PUSH2 0xD42 JUMP JUMPDEST SWAP8 POP PUSH2 0xDBB DUP4 PUSH2 0xEEF JUMP JUMPDEST SWAP3 POP POP PUSH1 0x1 DUP2 ADD SWAP1 POP PUSH2 0xD9C JUMP JUMPDEST POP DUP6 SWAP4 POP POP POP POP SWAP3 SWAP2 POP POP JUMP JUMPDEST PUSH1 0x0 PUSH2 0xDE3 PUSH1 0x9 DUP4 PUSH2 0xF0D JUMP JUMPDEST SWAP2 POP PUSH2 0xDEE DUP3 PUSH2 0xFCE JUMP JUMPDEST PUSH1 0x20 DUP3 ADD SWAP1 POP SWAP2 SWAP1 POP JUMP JUMPDEST PUSH2 0xE02 DUP2 PUSH2 0xF5A JUMP JUMPDEST DUP3 MSTORE POP POP JUMP JUMPDEST PUSH2 0xE19 PUSH2 0xE14 DUP3 PUSH2 0xF5A JUMP JUMPDEST PUSH2 0xF64 JUMP JUMPDEST DUP3 MSTORE POP POP JUMP JUMPDEST PUSH1 0x0 PUSH2 0xE2B DUP3 DUP7 PUSH2 0xE08 JUMP JUMPDEST PUSH1 0x20 DUP3 ADD SWAP2 POP PUSH2 0xE3B DUP3 DUP6 PUSH2 0xE08 JUMP JUMPDEST PUSH1 0x20 DUP3 ADD SWAP2 POP PUSH2 0xE4B DUP3 DUP5 PUSH2 0xE08 JUMP JUMPDEST PUSH1 0x20 DUP3 ADD SWAP2 POP DUP2 SWAP1 POP SWAP5 SWAP4 POP POP POP POP JUMP JUMPDEST PUSH1 0x0 PUSH1 0x20 DUP3 ADD SWAP1 POP PUSH2 0xE71 PUSH1 0x0 DUP4 ADD DUP5 PUSH2 0xD69 JUMP JUMPDEST SWAP3 SWAP2 POP POP JUMP JUMPDEST PUSH1 0x0 PUSH1 0x20 DUP3 ADD SWAP1 POP DUP2 DUP2 SUB PUSH1 0x0 DUP4 ADD MSTORE PUSH2 0xE91 DUP2 DUP5 PUSH2 0xD78 JUMP JUMPDEST SWAP1 POP SWAP3 SWAP2 POP POP JUMP JUMPDEST PUSH1 0x0 PUSH1 0x20 DUP3 ADD SWAP1 POP DUP2 DUP2 SUB PUSH1 0x0 DUP4 ADD MSTORE PUSH2 0xEB2 DUP2 PUSH2 0xDD6 JUMP JUMPDEST SWAP1 POP SWAP2 SWAP1 POP JUMP JUMPDEST PUSH1 0x0 PUSH1 0x20 DUP3 ADD SWAP1 POP PUSH2 0xECE PUSH1 0x0 DUP4 ADD DUP5 PUSH2 0xDF9 JUMP JUMPDEST SWAP3 SWAP2 POP POP JUMP JUMPDEST PUSH1 0x0 DUP2 SWAP1 POP PUSH1 0x20 DUP3 ADD SWAP1 POP SWAP2 SWAP1 POP JUMP JUMPDEST PUSH1 0x0 DUP2 MLOAD SWAP1 POP SWAP2 SWAP1 POP JUMP JUMPDEST PUSH1 0x0 PUSH1 0x20 DUP3 ADD SWAP1 POP SWAP2 SWAP1 POP JUMP JUMPDEST PUSH1 0x0 DUP3 DUP3 MSTORE PUSH1 0x20 DUP3 ADD SWAP1 POP SWAP3 SWAP2 POP POP JUMP JUMPDEST PUSH1 0x0 DUP3 DUP3 MSTORE PUSH1 0x20 DUP3 ADD SWAP1 POP SWAP3 SWAP2 POP POP JUMP JUMPDEST PUSH1 0x0 PUSH2 0xF29 DUP3 PUSH2 0xF3A JUMP JUMPDEST SWAP1 POP SWAP2 SWAP1 POP JUMP JUMPDEST PUSH1 0x0 DUP2 SWAP1 POP SWAP2 SWAP1 POP JUMP JUMPDEST PUSH1 0x0 PUSH20 0xFFFFFFFFFFFFFFFFFFFFFFFFFFFFFFFFFFFFFFFF DUP3 AND SWAP1 POP SWAP2 SWAP1 POP JUMP JUMPDEST PUSH1 0x0 DUP2 SWAP1 POP SWAP2 SWAP1 POP JUMP JUMPDEST PUSH1 0x0 DUP2 SWAP1 POP SWAP2 SWAP1 POP JUMP JUMPDEST PUSH1 0x0 PUSH2 0xF79 DUP3 PUSH2 0xF5A JUMP JUMPDEST SWAP2 POP PUSH2 0xF84 DUP4 PUSH2 0xF5A JUMP JUMPDEST SWAP3 POP DUP3 PUSH2 0xF94 JUMPI PUSH2 0xF93 PUSH2 0xF9F JUMP JUMPDEST JUMPDEST DUP3 DUP3 MOD SWAP1 POP SWAP3 SWAP2 POP POP JUMP JUMPDEST PUSH32 0x4E487B7100000000000000000000000000000000000000000000000000000000 PUSH1 0x0 MSTORE PUSH1 0x12 PUSH1 0x4 MSTORE PUSH1 0x24 PUSH1 0x0 REVERT JUMPDEST PUSH32 0x534D414C4C5F4554480000000000000000000000000000000000000000000000 PUSH1 0x0 DUP3 ADD MSTORE POP JUMP JUMPDEST PUSH2 0x1000 DUP2 PUSH2 0xF1E JUMP JUMPDEST DUP2 EQ PUSH2 0x100B JUMPI PUSH1 0x0 DUP1 REVERT JUMPDEST POP JUMP JUMPDEST PUSH2 0x1017 DUP2 PUSH2 0xF30 JUMP JUMPDEST DUP2 EQ PUSH2 0x1022 JUMPI PUSH1 0x0 DUP1 REVERT JUMPDEST POP JUMP JUMPDEST PUSH2 0x102E DUP2 PUSH2 0xF5A JUMP JUMPDEST DUP2 EQ PUSH2 0x1039 JUMPI PUSH1 0x0 DUP1 REVERT JUMPDEST POP JUMP INVALID LOG2 PUSH5 0x6970667358 0x22 SLT KECCAK256 STATICCALL 0xAD 0xB5 0xE8 0xEF 0xB1 0xE3 SWAP12 0xEE DUP8 STATICCALL SWAP15 SWAP5 0x1F GT DIFFICULTY DUP1 0xE0 DUP6 0xEF 0x5F CALLVALUE PUSH14 0xB475969DED5265C02564736F6C63 NUMBER STOP ADDMOD DIV STOP CALLER "
        },
        "methodIdentifiers": {
          "balance(address)": "e3d670d7",
          "buyLotteryTicket()": "a56b21ae",
          "c_0x832d375b(bytes32)": "6a2ad7fb",
          "f()": "26121ff0",
          "finishLottery()": "2c906ba2",
          "lotteryPlayers(uint256)": "f9b93a1d",
          "manager()": "481c6a75",
          "prizeAmount()": "785fa627",
          "showPLayers()": "8a9722c4",
          "ticketPrice()": "1209b1f6",
          "winnerNum()": "a5ec23f6"
        }
      }
    }
  }
}