{
  "_format": "hh-sol-artifact-1",
  "contractName": "myLottery",
  "sourceName": "contracts/lottery.sol",
  "abi": [
    {
      "inputs": [
        {
          "internalType": "uint256",
          "name": "_prizeAmount",
          "type": "uint256"
        }
      ],
      "stateMutability": "nonpayable",
      "type": "constructor"
    },
    {
      "inputs": [
        {
          "internalType": "address",
          "name": "",
          "type": "address"
        }
      ],
      "name": "balance",
      "outputs": [
        {
          "internalType": "uint256",
          "name": "",
          "type": "uint256"
        }
      ],
      "stateMutability": "view",
      "type": "function"
    },
    {
      "inputs": [],
      "name": "buyLotteryTicket",
      "outputs": [],
      "stateMutability": "payable",
      "type": "function"
    },
    {
      "inputs": [],
      "name": "f",
      "outputs": [
        {
          "internalType": "uint256",
          "name": "",
          "type": "uint256"
        }
      ],
      "stateMutability": "view",
      "type": "function"
    },
    {
      "inputs": [],
      "name": "finishLottery",
      "outputs": [],
      "stateMutability": "nonpayable",
      "type": "function"
    },
    {
      "inputs": [],
      "name": "getPlayers",
      "outputs": [
        {
          "internalType": "address[]",
          "name": "",
          "type": "address[]"
        }
      ],
      "stateMutability": "view",
      "type": "function"
    },
    {
      "inputs": [
        {
          "internalType": "uint256",
          "name": "",
          "type": "uint256"
        }
      ],
      "name": "lotteryPlayers",
      "outputs": [
        {
          "internalType": "address",
          "name": "",
          "type": "address"
        }
      ],
      "stateMutability": "view",
      "type": "function"
    },
    {
      "inputs": [],
      "name": "manager",
      "outputs": [
        {
          "internalType": "address",
          "name": "",
          "type": "address"
        }
      ],
      "stateMutability": "view",
      "type": "function"
    },
    {
      "inputs": [],
      "name": "prizeAmount",
      "outputs": [
        {
          "internalType": "uint256",
          "name": "",
          "type": "uint256"
        }
      ],
      "stateMutability": "view",
      "type": "function"
    },
    {
      "inputs": [],
      "name": "ticketPrice",
      "outputs": [
        {
          "internalType": "uint256",
          "name": "",
          "type": "uint256"
        }
      ],
      "stateMutability": "view",
      "type": "function"
    },
    {
      "inputs": [],
      "name": "winnerNum",
      "outputs": [
        {
          "internalType": "uint256",
          "name": "",
          "type": "uint256"
        }
      ],
      "stateMutability": "view",
      "type": "function"
    }
  ],
  "bytecode": "0x608060405234801561001057600080fd5b50604051610b1d380380610b1d83398181016040528101906100329190610094565b336000806101000a81548173ffffffffffffffffffffffffffffffffffffffff021916908373ffffffffffffffffffffffffffffffffffffffff16021790555080600281905550506100de565b60008151905061008e816100c7565b92915050565b6000602082840312156100a657600080fd5b60006100b48482850161007f565b91505092915050565b6000819050919050565b6100d0816100bd565b81146100db57600080fd5b50565b610a30806100ed6000396000f3fe6080604052600436106100915760003560e01c80638b5b9ccc116100595780638b5b9ccc14610159578063a56b21ae14610184578063a5ec23f61461018e578063e3d670d7146101b9578063f9b93a1d146101f657610091565b80631209b1f61461009657806326121ff0146100c15780632c906ba2146100ec578063481c6a7514610103578063785fa6271461012e575b600080fd5b3480156100a257600080fd5b506100ab610233565b6040516100b89190610898565b60405180910390f35b3480156100cd57600080fd5b506100d6610239565b6040516100e39190610898565b60405180910390f35b3480156100f857600080fd5b50610101610242565b005b34801561010f57600080fd5b50610118610439565b604051610125919061083b565b60405180910390f35b34801561013a57600080fd5b5061014361045d565b6040516101509190610898565b60405180910390f35b34801561016557600080fd5b5061016e610463565b60405161017b9190610856565b60405180910390f35b61018c6104f1565b005b34801561019a57600080fd5b506101a36105a1565b6040516101b09190610898565b60405180910390f35b3480156101c557600080fd5b506101e060048036038101906101db91906106cf565b6105a7565b6040516101ed9190610898565b60405180910390f35b34801561020257600080fd5b5061021d600480360381019061021891906106f8565b6105bf565b60405161022a919061083b565b60405180910390f35b60035481565b6000602a905090565b60008054906101000a900473ffffffffffffffffffffffffffffffffffffffff1673ffffffffffffffffffffffffffffffffffffffff163373ffffffffffffffffffffffffffffffffffffffff161461029a57600080fd5b600060018054905014156102ad57600080fd5b600042446001805490506040516020016102c9939291906107fe565b60405160208183030381529060405290506000818051906020012090506001805490508160001c6102fa9190610943565b60058190555060016005548154811061033c577f4e487b7100000000000000000000000000000000000000000000000000000000600052603260045260246000fd5b9060005260206000200160009054906101000a900473ffffffffffffffffffffffffffffffffffffffff1673ffffffffffffffffffffffffffffffffffffffff166108fc6002549081150290604051600060405180830381858888f193505050501580156103ae573d6000803e3d6000fd5b50600067ffffffffffffffff8111156103f0577f4e487b7100000000000000000000000000000000000000000000000000000000600052604160045260246000fd5b60405190808252806020026020018201604052801561041e5781602001602082028036833780820191505090505b50600190805190602001906104349291906105fe565b505050565b60008054906101000a900473ffffffffffffffffffffffffffffffffffffffff1681565b60025481565b606060018054806020026020016040519081016040528092919081815260200182805480156104e757602002820191906000526020600020905b8160009054906101000a900473ffffffffffffffffffffffffffffffffffffffff1673ffffffffffffffffffffffffffffffffffffffff168152602001906001019080831161049d575b5050505050905090565b670de0b6b3a764000034101561053c576040517f08c379a000000000000000000000000000000000000000000000000000000000815260040161053390610878565b60405180910390fd5b6001339080600181540180825580915050600190039060005260206000200160009091909190916101000a81548173ffffffffffffffffffffffffffffffffffffffff021916908373ffffffffffffffffffffffffffffffffffffffff160217905550565b60055481565b60046020528060005260406000206000915090505481565b600181815481106105cf57600080fd5b906000526020600020016000915054906101000a900473ffffffffffffffffffffffffffffffffffffffff1681565b828054828255906000526020600020908101928215610677579160200282015b828111156106765782518260006101000a81548173ffffffffffffffffffffffffffffffffffffffff021916908373ffffffffffffffffffffffffffffffffffffffff1602179055509160200191906001019061061e565b5b5090506106849190610688565b5090565b5b808211156106a1576000816000905550600101610689565b5090565b6000813590506106b4816109cc565b92915050565b6000813590506106c9816109e3565b92915050565b6000602082840312156106e157600080fd5b60006106ef848285016106a5565b91505092915050565b60006020828403121561070a57600080fd5b6000610718848285016106ba565b91505092915050565b600061072d8383610739565b60208301905092915050565b610742816108fd565b82525050565b610751816108fd565b82525050565b6000610762826108c3565b61076c81856108db565b9350610777836108b3565b8060005b838110156107a857815161078f8882610721565b975061079a836108ce565b92505060018101905061077b565b5085935050505092915050565b60006107c26009836108ec565b91506107cd826109a3565b602082019050919050565b6107e18161092f565b82525050565b6107f86107f38261092f565b610939565b82525050565b600061080a82866107e7565b60208201915061081a82856107e7565b60208201915061082a82846107e7565b602082019150819050949350505050565b60006020820190506108506000830184610748565b92915050565b600060208201905081810360008301526108708184610757565b905092915050565b60006020820190508181036000830152610891816107b5565b9050919050565b60006020820190506108ad60008301846107d8565b92915050565b6000819050602082019050919050565b600081519050919050565b6000602082019050919050565b600082825260208201905092915050565b600082825260208201905092915050565b60006109088261090f565b9050919050565b600073ffffffffffffffffffffffffffffffffffffffff82169050919050565b6000819050919050565b6000819050919050565b600061094e8261092f565b91506109598361092f565b92508261096957610968610974565b5b828206905092915050565b7f4e487b7100000000000000000000000000000000000000000000000000000000600052601260045260246000fd5b7f534d414c4c5f4554480000000000000000000000000000000000000000000000600082015250565b6109d5816108fd565b81146109e057600080fd5b50565b6109ec8161092f565b81146109f757600080fd5b5056fea2646970667358221220f36833aba22ab76b77a59669a42e206d2745b146bc1996a3c775c51ac221370f64736f6c63430008040033",
  "linkReferences": {},
  "deployedLinkReferences": {}
}