{
  "_format": "hh-sol-artifact-1",
  "contractName": "myLottery",
  "sourceName": "contracts/lottery.sol",
  "abi": [
    {
      "inputs": [
        {
          "internalType": "uint256",
          "name": "_prizeAmount",
          "type": "uint256"
        }
      ],
      "stateMutability": "nonpayable",
      "type": "constructor"
    },
    {
      "inputs": [
        {
          "internalType": "address",
          "name": "",
          "type": "address"
        }
      ],
      "name": "balance",
      "outputs": [
        {
          "internalType": "uint256",
          "name": "",
          "type": "uint256"
        }
      ],
      "stateMutability": "view",
      "type": "function"
    },
    {
      "inputs": [],
      "name": "buyLotteryTicket",
      "outputs": [],
      "stateMutability": "payable",
      "type": "function"
    },
    {
      "inputs": [
        {
          "internalType": "bytes32",
          "name": "c__0x832d375b",
          "type": "bytes32"
        }
      ],
      "name": "c_0x832d375b",
      "outputs": [],
      "stateMutability": "pure",
      "type": "function"
    },
    {
      "inputs": [],
      "name": "f",
      "outputs": [
        {
          "internalType": "uint256",
          "name": "",
          "type": "uint256"
        }
      ],
      "stateMutability": "view",
      "type": "function"
    },
    {
      "inputs": [],
      "name": "finishLottery",
      "outputs": [],
      "stateMutability": "nonpayable",
      "type": "function"
    },
    {
      "inputs": [
        {
          "internalType": "uint256",
          "name": "",
          "type": "uint256"
        }
      ],
      "name": "lotteryPlayers",
      "outputs": [
        {
          "internalType": "address",
          "name": "",
          "type": "address"
        }
      ],
      "stateMutability": "view",
      "type": "function"
    },
    {
      "inputs": [],
      "name": "manager",
      "outputs": [
        {
          "internalType": "address",
          "name": "",
          "type": "address"
        }
      ],
      "stateMutability": "view",
      "type": "function"
    },
    {
      "inputs": [],
      "name": "prizeAmount",
      "outputs": [
        {
          "internalType": "uint256",
          "name": "",
          "type": "uint256"
        }
      ],
      "stateMutability": "view",
      "type": "function"
    },
    {
      "inputs": [],
      "name": "showPLayers",
      "outputs": [
        {
          "internalType": "address[]",
          "name": "",
          "type": "address[]"
        }
      ],
      "stateMutability": "view",
      "type": "function"
    },
    {
      "inputs": [],
      "name": "ticketPrice",
      "outputs": [
        {
          "internalType": "uint256",
          "name": "",
          "type": "uint256"
        }
      ],
      "stateMutability": "view",
      "type": "function"
    },
    {
      "inputs": [],
      "name": "winnerNum",
      "outputs": [
        {
          "internalType": "uint256",
          "name": "",
          "type": "uint256"
        }
      ],
      "stateMutability": "view",
      "type": "function"
    }
  ],
  "bytecode": "0x60806040523480156200001157600080fd5b5060405162001275380380620012758339818101604052810190620000379190620001a3565b6200006b7f4b81b888b31447318e138709c52aa922ce0d83c4fc4b3a10c13709ad9d5525a860001b6200018960201b60201c565b6200009f7fb8c030d4b9e634994958afe23869d6967dd8097a509a212ebe1518b05c03823660001b6200018960201b60201c565b620000d37f74755197d29e40ad0cbe8fd01ffc0194507a3460fa6b5fdc31a62f9c5593dff060001b6200018960201b60201c565b336000806101000a81548173ffffffffffffffffffffffffffffffffffffffff021916908373ffffffffffffffffffffffffffffffffffffffff160217905550620001477fb5302ead6193b3544d548350f4f7295bf32504fc2e23c96a19f49c2d5efeda5760001b6200018960201b60201c565b6200017b7f3579f3b402197c20de317aa5f3614ff0931328b6334a87bb2017c2fc3919fa4a60001b6200018960201b60201c565b8060028190555050620001f3565b50565b6000815190506200019d81620001d9565b92915050565b600060208284031215620001b657600080fd5b6000620001c6848285016200018c565b91505092915050565b6000819050919050565b620001e481620001cf565b8114620001f057600080fd5b50565b61107280620002036000396000f3fe60806040526004361061009c5760003560e01c8063785fa62711610064578063785fa627146101625780638a9722c41461018d578063a56b21ae146101b8578063a5ec23f6146101c2578063e3d670d7146101ed578063f9b93a1d1461022a5761009c565b80631209b1f6146100a157806326121ff0146100cc5780632c906ba2146100f7578063481c6a751461010e5780636a2ad7fb14610139575b600080fd5b3480156100ad57600080fd5b506100b6610267565b6040516100c39190610eb9565b60405180910390f35b3480156100d857600080fd5b506100e161026d565b6040516100ee9190610eb9565b60405180910390f35b34801561010357600080fd5b5061010c6102ce565b005b34801561011a57600080fd5b50610123610861565b6040516101309190610e5c565b60405180910390f35b34801561014557600080fd5b50610160600480360381019061015b9190610cf0565b610885565b005b34801561016e57600080fd5b50610177610888565b6040516101849190610eb9565b60405180910390f35b34801561019957600080fd5b506101a261088e565b6040516101af9190610e77565b60405180910390f35b6101c06109a0565b005b3480156101ce57600080fd5b506101d7610b84565b6040516101e49190610eb9565b60405180910390f35b3480156101f957600080fd5b50610214600480360381019061020f9190610cc7565b610b8a565b6040516102219190610eb9565b60405180910390f35b34801561023657600080fd5b50610251600480360381019061024c9190610d19565b610ba2565b60405161025e9190610e5c565b60405180910390f35b60035481565b600061029b7f3d5ed65e494b435559257e6d4593150846694e66c553125cf54fe6558c16170760001b610885565b6102c77f60d71f817cd2e18411a8a97cc3c6a60ea829c4b33a18a186b44ae2a6328badba60001b610885565b602a905090565b6102fa7ff168f74ecb76bbea577844e34944500c9bfa5ffbaa7fce46e004a98964b6bf2860001b610885565b6103267fb0b75e9aa541b6e0c370d8cee88a1cd90aa3675deeb263d90d35afa4fe62f1cc60001b610885565b6103527f316ec5f0f5b06bcf674c625634ed2324284cb18583e0f9405070357ca9b4be8a60001b610885565b61037e7f6173f7057314a3ecf434b5a8804b8fd137e0a69c83e66064a14c62646b5a547260001b610885565b60008054906101000a900473ffffffffffffffffffffffffffffffffffffffff1673ffffffffffffffffffffffffffffffffffffffff163373ffffffffffffffffffffffffffffffffffffffff16146103d657600080fd5b6104027f7516ab41cae535fdd6eec4b62971f1f95fa144b44834e0cd0d2b9e8a946de83c60001b610885565b61042e7f6de42d68a905e9e579f43b5ac7c0c54d19825d9abd5a11f7712821f4c71a52c160001b610885565b61045a7f78579e1fdf56b6d5a022e214f73b77699d87b8afc24e96e9b1dab0634383ce1460001b610885565b6104867f2475560ebe1575d60f097420a70e198c7e7dc37fa63646122f747a4e45b2294260001b610885565b6104b27f94a7bf80b7cb7f333c02e10a31ef82988e54d0167b582e9f1619c62e3a146f0360001b610885565b6104de7f9004608756cae6891737946a8fa6fd2e2fe5ec6eb26173dd76c87e89e6df2b5d60001b610885565b600060018054905014156104f157600080fd5b61051d7fe0037ae3fed3f2924b8b678a11123a7ff5ba36c4a1ae5b8b6293f9677935b5ea60001b610885565b6105497f1f3f4d88d4900aeb39ee955e0a42d4b58943627a28555a69e3c7cef9ee55b77760001b610885565b6105757f354369a44bee5dd98296c9a4dc302de8c74b896a9cbc0ced4719d6bfe750fbd560001b610885565b6000424460018054905060405160200161059193929190610e1f565b60405160208183030381529060405290506105ce7f4bedf6d7a1cb375d8bb1e8e5d0316ef8b9ef81c73b9c1bf0095688387f6f3e6460001b610885565b6105fa7fa8302ac8b5dcafa16d270a20b941e1406c0a85018048a4af1bbf6570632910ce60001b610885565b6000818051906020012090506106327f13ffe37ae9912324fb5f75b6a8d45a3ca95cf3b29bba3f558785b5dc384158be60001b610885565b61065e7f34edbcc47ec129f7790e96c8c5ff0f27ded383bbfe54f8f8704a2ca0e820f7d560001b610885565b6001805490508160001c6106729190610f6e565b6005819055506106a47f59e246729a4999454d452858d887da8d48f3bfa040cec02c536bed8d6fb2ea0d60001b610885565b6106d07f5668eb37d5d23528fdde918cb21dee0bf7ba5fb19ace6c4a07d94f754f1a0b7f60001b610885565b60016005548154811061070c577f4e487b7100000000000000000000000000000000000000000000000000000000600052603260045260246000fd5b9060005260206000200160009054906101000a900473ffffffffffffffffffffffffffffffffffffffff1673ffffffffffffffffffffffffffffffffffffffff166108fc6002549081150290604051600060405180830381858888f1935050505015801561077e573d6000803e3d6000fd5b506107ab7f041554401d5041907a18b0dc99e3d2081fca16049dcea39b6d90a6ca13a8f47a60001b610885565b6107d77f9285d34b88284437a70f53e610a6e8987af07262fa53b1966dcd46b8498d97fe60001b610885565b600067ffffffffffffffff811115610818577f4e487b7100000000000000000000000000000000000000000000000000000000600052604160045260246000fd5b6040519080825280602002602001820160405280156108465781602001602082028036833780820191505090505b506001908051906020019061085c929190610be1565b505050565b60008054906101000a900473ffffffffffffffffffffffffffffffffffffffff1681565b50565b60025481565b60606108bc7f0b8e8ffade8d3a717fe169eea67bdda55931ce31e37e794c19ce9a68cda1d78c60001b610885565b6108e87f1a44bddb3abea65aa694ef607e72bcd26a0a8ef73e6dad692f16806313c0ded360001b610885565b6109147fa09d87f25d1341152bb7e21e0555a4c6c774c8563b29255ad2a344f171a64a4960001b610885565b600180548060200260200160405190810160405280929190818152602001828054801561099657602002820191906000526020600020905b8160009054906101000a900473ffffffffffffffffffffffffffffffffffffffff1673ffffffffffffffffffffffffffffffffffffffff168152602001906001019080831161094c575b5050505050905090565b6109cc7f2b391c320b50c50d11000bb5c2987ca263c8fc7d65e4d84c7c5ea7decdc6f69660001b610885565b6109f87f6ab80700ad74eec1973f5c02c240e55569b222102218450c93bcb3ecd11ccb5a60001b610885565b610a247f2da19253e2fe6ad5cdd73a166168fa6a340087f7bcd6ef469f76a9528174a81660001b610885565b610a507fbb8f345abcd59266eaf4280083efaf9415c292f841309bee22c92dd48f9be78f60001b610885565b670de0b6b3a7640000341015610a9b576040517f08c379a0000000000000000000000000000000000000000000000000000000008152600401610a9290610e99565b60405180910390fd5b610ac77f7029eff98884e5fc012d2175f1d8c893795ff9f7b0fd50713c8b5336492318c760001b610885565b610af37f42383c45996146a51cbafeeed71350afe8c83d48f576236ca084329dcbd3fa9a60001b610885565b610b1f7f7933ad3e022a4a41e254d9ba600ab911dfd1f617ff4143ba1e8ec5484475ba3d60001b610885565b6001339080600181540180825580915050600190039060005260206000200160009091909190916101000a81548173ffffffffffffffffffffffffffffffffffffffff021916908373ffffffffffffffffffffffffffffffffffffffff160217905550565b60055481565b60046020528060005260406000206000915090505481565b60018181548110610bb257600080fd5b906000526020600020016000915054906101000a900473ffffffffffffffffffffffffffffffffffffffff1681565b828054828255906000526020600020908101928215610c5a579160200282015b82811115610c595782518260006101000a81548173ffffffffffffffffffffffffffffffffffffffff021916908373ffffffffffffffffffffffffffffffffffffffff16021790555091602001919060010190610c01565b5b509050610c679190610c6b565b5090565b5b80821115610c84576000816000905550600101610c6c565b5090565b600081359050610c9781610ff7565b92915050565b600081359050610cac8161100e565b92915050565b600081359050610cc181611025565b92915050565b600060208284031215610cd957600080fd5b6000610ce784828501610c88565b91505092915050565b600060208284031215610d0257600080fd5b6000610d1084828501610c9d565b91505092915050565b600060208284031215610d2b57600080fd5b6000610d3984828501610cb2565b91505092915050565b6000610d4e8383610d5a565b60208301905092915050565b610d6381610f1e565b82525050565b610d7281610f1e565b82525050565b6000610d8382610ee4565b610d8d8185610efc565b9350610d9883610ed4565b8060005b83811015610dc9578151610db08882610d42565b9750610dbb83610eef565b925050600181019050610d9c565b5085935050505092915050565b6000610de3600983610f0d565b9150610dee82610fce565b602082019050919050565b610e0281610f5a565b82525050565b610e19610e1482610f5a565b610f64565b82525050565b6000610e2b8286610e08565b602082019150610e3b8285610e08565b602082019150610e4b8284610e08565b602082019150819050949350505050565b6000602082019050610e716000830184610d69565b92915050565b60006020820190508181036000830152610e918184610d78565b905092915050565b60006020820190508181036000830152610eb281610dd6565b9050919050565b6000602082019050610ece6000830184610df9565b92915050565b6000819050602082019050919050565b600081519050919050565b6000602082019050919050565b600082825260208201905092915050565b600082825260208201905092915050565b6000610f2982610f3a565b9050919050565b6000819050919050565b600073ffffffffffffffffffffffffffffffffffffffff82169050919050565b6000819050919050565b6000819050919050565b6000610f7982610f5a565b9150610f8483610f5a565b925082610f9457610f93610f9f565b5b828206905092915050565b7f4e487b7100000000000000000000000000000000000000000000000000000000600052601260045260246000fd5b7f534d414c4c5f4554480000000000000000000000000000000000000000000000600082015250565b61100081610f1e565b811461100b57600080fd5b50565b61101781610f30565b811461102257600080fd5b50565b61102e81610f5a565b811461103957600080fd5b5056fea2646970667358221220faadb5e8efb1e39bee87fa9e941f114480e085ef5f346db475969ded5265c02564736f6c63430008040033",
  "linkReferences": {},
  "deployedLinkReferences": {}
}